:020000040000FA
:04000000B20102291E
:0800080008000408A70086119E
:100010000611061183168611061106110F3086058A
:1000200083122708B21832283A30A100FC30AB20E6
:100030003330A60046201030A1006830AB204620A7
:100040006430AA2046202230A600462028303120E5
:100050000C3031200130312006303120B214270815
:1000600032283214A600321C40280611033C031C1F
:10007000452845200730A100D030AB2003140800EC
:100080003214FE3C0319FD280615321C3210861569
:100090000F3086052608F03986048611A60E321820
:1000A00046283230AA2003140800B3132908031984
:1000B000B3170530A8002730A30010306B200330A1
:1000C000A300E8306B20A30164306B20A3010A3049
:1000D0006B2024087228A2002508A1002408A00093
:1000E000C6202008A000A8030319B3132908031988
:1000F0007C282802031808002008031DB313B31B33
:100100000800303EF828031783168C010C14831264
:100110000C0803178D0AFD28030103178C008316B2
:100120008C010C1555308D00AA308D008C148C1864
:1001300097280C1183128D0AFD28A301A200FF301D
:10014000A207031CA307031CFD280330A100DF3016
:10015000AB209F28A101E83EA000A109FC30031CB0
:10016000B428A0070318B128A0076400A10FB12884
:100170002018BA28A01CBE280000BE28080000389D
:10018000031DFF300405031DFF30FD28A501A40158
:100190001030A600210DA40DA50D2208A4022308ED
:1001A000031C230FA5020318DC282208A407230838
:1001B0000318230FA5070310A00DA10DA60BCA2835
:1001C0002008FD281030A800A101A001A70CA60C52
:1001D000031CF0282208A00723080318230FA107F7
:1001E000A10CA00CA50CA40CA80BE6282408FD2843
:1001F000840031088A0030088200831303138312BD
:1002000064000800C0309F00831677308F001F30D5
:1002100085000130860087018030810083128B01C8
:10022000831696018C018D0183128C018D0183163A
:100230009601831280309F00831680309F00031741
:100240008801890183128701880183168501831241
:10025000031397019D018B178A110A1234298B1BF6
:1002600008008A150A12B72A8A012F21ED016400BD
:1002700029306D028A110A12031862298A012F217E
:100280006D0803178D0003138A018320E000E1014C
:100290006D08383E8400600880008A012F216400C8
:1002A0008A110A128316031783100C188314831201
:1002B000031383184D298A012F21ED0A8A110A128E
:1002C000031D37298A012F2186018A012F218701E9
:1002D0008A012F21ED018A012F21F0018A012F21AE
:1002E000EB018A012F216F108A012F21EA018A0177
:1002F0002F21EC018A012F21FE308A0106200130D6
:100300008A0106208A012F21FE308A010620403012
:100310008A0106201F308A01062011308A0106203A
:1003200011308A01062011308A01062011308A011D
:10033000062011308A0106201F308A010620003075
:100340008A0106208A012F21FE308A0106204830CA
:100350008A0106201F308A0106201F308A010620EC
:100360001F308A0106201F308A0106201F308A01B3
:1003700006201F308A0106201F308A010620003027
:100380008A0106208A012F21FE308A010620503082
:100390008A0106200C308A01062012308A010620CC
:1003A00012308A0106200C308A01062000308A01B2
:1003B000062000308A01062000308A010620003025
:1003C0008A0106208A012F21FE308A01062058303A
:1003D0008A01062000308A01062000308A010620AA
:1003E00001308A01062002308A01062014308A0179
:1003F000062008308A01062000308A0106200030DD
:100400008A0106208A012F21FE308A0106206030F1
:100410008A01062003308A01062003308A01062063
:1004200010308A01062008308A01062004308A0133
:10043000062003308A01062003308A01062000309E
:100440008A0106208A012F21FE308A0106206830A9
:100450008A01062003308A01062003308A01062023
:1004600004308A01062004308A01062004308A0103
:10047000062003308A01062003308A01062000305E
:100480008A0106208A012F218A110A1274248A0106
:100490002F21FE308A010620C4308A010620203038
:1004A0008A01062020308A01062043308A01062076
:1004B00048308A0106204F308A01062052308A01D6
:1004C000062055308A01062053308A010620FE306E
:1004D0008A0106208D308A01062004308A01062018
:1004E00020308A01062004308A0106208A012F214B
:1004F00064008A01782A8A012F2164008A110A1275
:100500000518AD2A8A012F2164008A110A126F187A
:10051000912A8A012F21F0018A012F218A110A12C2
:10052000A12A8A012F21EB038A012F2164006B0885
:10053000FF3C8A110A12031D9F2A0930EB008A0131
:100540002F218A012F218A110A1274248A012F2156
:100550008A110A1239258A012F218A012F2164006C
:100560008A110A128518DF2A8A012F2164008A1154
:100570000A126F18C42A8A012F210130F0008A0163
:100580002F218A110A12D32A8A012F21EB0A8A010C
:100590002F2164006B080A3C8A110A12031DD12A1C
:1005A000EB018A012F218A012F218A110A1274245A
:1005B0008A012F218A110A1239258A012F218A01E5
:1005C0002F2164008A110A120519242B8A012F2178
:1005D00064008A110A126F18F62A8A012F2102304C
:1005E000F0008A012F218A110A12182B8A012F216B
:1005F000F0038A012F2164007008FF3C8A110A125F
:10060000031D162B8A012F210330F0008A012F21B0
:10061000EB038A012F2164006B08FF3C8A110A1248
:10062000031D142B0930EB008A012F218A012F2191
:100630008A012F218A110A1274248A012F218A111A
:100640000A1239258A012F218A012F2164008A117B
:100650000A128519672B8A012F2164008A110A1258
:100660006F183B2B8A012F210330F0008A012F21C4
:100670008A110A125B2B8A012F21F00A8A012F218D
:1006800064007008043C8A110A12031D592B8A0168
:100690002F21F0018A012F21EB0A8A012F2164000A
:1006A0006B080A3C8A110A12031D572BEB018A01C1
:1006B0002F218A012F218A012F218A110A127424E5
:1006C0008A012F218A110A1239258A012F218A01D4
:1006D0002F2164008A110A12051A702C8A012F2119
:1006E000EC018A012F21EC0A8A012F2164001530C8
:1006F0006C028A110A12031CEB2B8A012F21FE3097
:100700008A01062080308A01062053308A010620A3
:1007100045308A01062054308A010620FE308A01C5
:100720000620C4308A01062020308A0106202030AD
:100730008A01062020308A01062020308A01062006
:1007400020308A01062020308A01062020308A01CC
:1007500006205E308A0106208A012F21640070087D
:10076000003C8A110A12031DB72B860106168A0166
:100770002F2164007008013C8A110A12031DC22B4C
:10078000860186168A012F2164007008023C8A11B6
:100790000A12031DCD2B860106178A012F21640042
:1007A0007008033C8A110A12031DD82B8601861794
:1007B0008A012F218A110A1239258A012F218A11D3
:1007C0000A127F258A012F21EC018A012F218A013B
:1007D0007B2A8A012F218A012F2164008A110A12A3
:1007E000051E652C8A012F21640014306C028A11C9
:1007F0000A1203185C2C8A012F210130EF068316A0
:100800006F1083128A012F2164008A110A126F1857
:10081000182CFE308A01062080308A0106205030D4
:100820008A01062053308A01062054308A010620AE
:100830008A012F2164008A110A126F1C2E2CFE30AF
:100840008A01062080308A01062053308A01062062
:1008500045308A01062043308A0106208A012F2173
:1008600064007008003C8A110A12031D392C8601AD
:1008700006168A012F2164007008013C8A110A12B1
:10088000031D442C860186168A012F2164007008FE
:10089000023C8A110A12031D4F2C860106178A0199
:1008A0002F2164007008033C8A110A12031D5A2C80
:1008B000860186178A012F218A012F21EC018A01E6
:1008C0002F218A017B2A8A012F218A012F21323090
:1008D0008A019D208A012F218A01712B8A012F21F3
:1008E0008A012F218A017B2A8A012F216B08A60009
:1008F000A7010430A200A3018A01E220E00025083C
:10090000E10060087007ED008A012F216D08383E74
:100910008400000887008A012F2164008A110A12CE
:100920006F18A12CFE308A01062080308A01062033
:1009300050308A01062053308A01062054308A0143
:1009400006208A012F2164008A110A126F1CB72C1D
:10095000FE308A01062080308A01062053308A0149
:10096000062045308A01062043308A0106208A018C
:100970002F21FE308A01062084308A0106200030B3
:10098000871B01308A0106200030071B01308A01D5
:1009900006200030871A01308A0106200030071A2D
:1009A00001308A0106200030871901308A010620B3
:1009B0000030071901308A01062000308718013005
:1009C0008A0106200030071801308A0106208A01BA
:1009D0002F21FE308A010620C0308A010620A9019D
:1009E0006B08A400A5010530B000B1018A015520B3
:1009F0002E308A010620A90101307007E000E101D4
:100A0000E10D6008A4006108A5000530B000B10147
:100A10008A0155208A012F2164007008003C8A1148
:100A20000A12031D152D860106168A012F21640066
:100A30007008013C8A110A12031D202D86018616BA
:100A40008A012F2164007008023C8A110A12031DDA
:100A50002B2D860106178A012F2164007008033CA4
:100A60008A110A12031D362D860186178A012F214D
:100A700008008A012F218A012F2132308A019D200E
:100A80008A012F2103010518FF30E00003018518BA
:100A9000FF30E2006008840062088A01BF20E200A3
:100AA000E30003010519FF30E400620863048400D9
:100AB00064088A01BF20E400E50003018519FF30C6
:100AC000E60064086504840066088A01BF20E60029
:100AD000E7000301051AFF30E80066086704840098
:100AE00068088A01BF20E800E9006400680869041A
:100AF0008A110A1203193B2D8A012F2108008A014D
:100B00002F216D08383E84000008EA008A012F2159
:100B1000EE018A012F2164008A110A120519522F51
:100B20008A012F21EE0A8A012F21640008306E020B
:100B30008A110A12031C9D2DEE018A012F218A01C0
:100B40002F2164006E08003C8A110A12031DD02D6B
:100B50008A012F21FE308A010620C3308A01062037
:100B600020308A01062020308A01062020308A01A8
:100B7000062020308A01062020308A0106202030FD
:100B80008A01062020308A01062020308A010620B2
:100B90005E308A0106208A012F218A110A12162F3F
:100BA00064006E08013C8A110A12031DFF2D8A01A0
:100BB0002F21FE308A010620C3308A010620203012
:100BC0008A01062020308A01062020308A01062072
:100BD00020308A01062020308A01062020308A0138
:100BE000062020308A0106205E308A01062020304F
:100BF0008A0106208A012F218A110A12162F640009
:100C00006E08023C8A110A12031D2E2E8A012F2122
:100C1000FE308A010620C3308A01062020308A0176
:100C2000062020308A01062020308A01062020304C
:100C30008A01062020308A01062020308A01062001
:100C40005E308A01062020308A01062020308A0189
:100C500006208A012F218A110A12162F64006E08BD
:100C6000033C8A110A12031D5D2E8A012F21FE30DA
:100C70008A010620C3308A01062020308A0106201E
:100C800020308A01062020308A01062020308A0187
:100C9000062020308A0106205E308A01062020309E
:100CA0008A01062020308A01062020308A01062091
:100CB0008A012F218A110A12162F64006E08043C43
:100CC0008A110A12031D8C2E8A012F21FE308A01FF
:100CD0000620C3308A01062020308A0106202030F9
:100CE0008A01062020308A01062020308A01062051
:100CF0005E308A01062020308A01062020308A01D9
:100D0000062020308A01062020308A0106208A0130
:100D10002F218A110A12162F64006E08053C8A11D1
:100D20000A12031DBB2E8A012F21FE308A010620E4
:100D3000C3308A01062020308A01062020308A0133
:100D4000062020308A0106205E308A0106202030ED
:100D50008A01062020308A01062020308A010620E0
:100D600020308A01062020308A0106208A012F21A6
:100D70008A110A12162F64006E08063C8A110A12A4
:100D8000031DEA2E8A012F21FE308A010620C3307E
:100D90008A01062020308A01062020308A010620A0
:100DA0005E308A01062020308A01062020308A0128
:100DB000062020308A01062020308A0106202030BB
:100DC0008A01062020308A0106208A012F218A11FB
:100DD0000A12162F64006E08073C8A110A12031DBE
:100DE000162F8A012F21FE308A010620C3308A0186
:100DF000062020308A0106205E308A01062020303D
:100E00008A01062020308A01062020308A0106202F
:100E100020308A01062020308A01062020308A01F5
:100E2000062020308A0106208A012F218A012F21E5
:100E300064007008003C8A110A12031D212F8601EC
:100E400006168A012F2164007008013C8A110A12DB
:100E5000031D2C2F860186168A012F21640070083D
:100E6000023C8A110A12031D372F860106178A01D8
:100E70002F2164007008033C8A110A12031D422FBF
:100E8000860186178A012F218A012F2132308A019B
:100E90009D208A012F2164008A110A12051D442F0A
:100EA0008A012F218A012F2164008A150A128519CF
:100EB0001C298A012F21EE038A012F2164006E086C
:100EC000FF3C8A110A12031D672F0730EE008A01CA
:100ED0002F218A012F2164006E08003C8A110A121A
:100EE000031D9A2F8A012F21FE308A010620C3306C
:100EF0008A01062020308A01062020308A0106203F
:100F000020308A01062020308A01062020308A0104
:100F1000062020308A01062020308A010620203059
:100F20008A0106205E308A0106208A012F218A1557
:100F30000A12E02864006E08013C8A110A12031D9F
:100F4000C92F8A012F21FE308A010620C3308A0171
:100F5000062020308A01062020308A010620203019
:100F60008A01062020308A01062020308A010620CE
:100F700020308A01062020308A0106205E308A0156
:100F8000062020308A0106208A012F218A150A12A4
:100F9000E02864006E08023C8A110A12031DF82F33
:100FA0008A012F21FE308A010620C3308A010620E3
:100FB00020308A01062020308A01062020308A0154
:100FC000062020308A01062020308A0106202030A9
:100FD0008A0106205E308A01062020308A01062020
:100FE00020308A0106208A012F218A150A12E02862
:100FF00064006E08033C8A150A12031D27288A0123
:101000002F21FE308A010620C3308A0106202030BD
:101010008A01062020308A01062020308A0106201D
:1010200020308A01062020308A0106205E308A01A5
:10103000062020308A01062020308A010620203038
:101040008A0106208A012F218A150A12E0286400ED
:101050006E08043C8A150A12031D56288A012F21A6
:10106000FE308A010620C3308A01062020308A0122
:10107000062020308A01062020308A0106202030F8
:101080008A0106205E308A01062020308A0106206F
:1010900020308A01062020308A01062020308A0173
:1010A00006208A012F218A150A12E02864006E08A2
:1010B000053C8A150A12031D85288A012F21FE305E
:1010C0008A010620C3308A01062020308A010620CA
:1010D00020308A01062020308A0106205E308A01F5
:1010E000062020308A01062020308A010620203088
:1010F0008A01062020308A01062020308A0106203D
:101100008A012F218A150A12E02864006E08063C25
:101110008A150A12031DB4288A012F21FE308A0184
:101120000620C3308A01062020308A0106202030A4
:101130008A0106205E308A01062020308A010620BE
:1011400020308A01062020308A01062020308A01C2
:10115000062020308A01062020308A0106208A01DC
:101160002F218A150A12E02864006E08073C8A15B0
:101170000A12031DE0288A012F21FE308A01062071
:10118000C3308A01062020308A0106205E308A01A1
:10119000062020308A01062020308A0106202030D7
:1011A0008A01062020308A01062020308A0106208C
:1011B00020308A01062020308A0106208A012F2152
:1011C0008A012F2164007008003C8A150A12031D51
:1011D000EB28860106168A012F2164007008013C65
:1011E0008A150A12031DF628860186168A012F2108
:1011F00064007008023C8A150A12031D0129860149
:1012000006178A012F2164007008033C8A150A1210
:10121000031D0C29860186178A012F218A012F219F
:1012200032308A019D208A012F2164008A150A121A
:10123000851D0E298A012F218A012F2164008A151C
:101240000A12051AB02A8A012F21EC018A012F21E6
:10125000EC0A8A012F21640015306C028A150A12EB
:10126000031C93298A012F216D08383E8400000851
:10127000E00064006A0860028A150A1203195729FF
:101280008A012F216D0803178D0003136A088A0154
:101290008D208A012F210A308A019D208A012F2169
:1012A0006D08383E84006A0880008A012F218A0177
:1012B0002F2164008A150A126F186D29FE308A01E9
:1012C000062080308A01062050308A0106205330E3
:1012D0008A01062054308A0106208A012F216400E9
:1012E0008A150A126F1C8329FE308A01062080307D
:1012F0008A01062053308A01062045308A010620E3
:1013000043308A0106208A012F218A0174248A0130
:101310002F21EC018A012F218A0139258A012F21F1
:1013200008008A012F218A012F2132308A019D2055
:101330008A012F2164008A150A12051EA92A8A0132
:101340002F21640014306C028A150A120318A32A94
:101350008A012F218A012F2164006E08003C8A1522
:101360000A12031DBF298A012F210130EA068316C4
:101370006A1083128A012F218A150A12412A6400F9
:101380006E08013C8A150A12031DD2298A012F21F9
:101390000230EA068316EA1083128A012F218A1589
:1013A0000A12412A64006E08023C8A150A12031DC3
:1013B000E5298A012F210430EA0683166A11831277
:1013C0008A012F218A150A12412A64006E08033C03
:1013D0008A150A12031DF8298A012F210830EA060E
:1013E0008316EA1183128A012F218A150A12412AD3
:1013F00064006E08043C8A150A12031D0B2A8A0138
:101400002F211030EA0683166A1283128A012F21D7
:101410008A150A12412A64006E08053C8A150A12D0
:10142000031D1E2A8A012F212030EA068316EA12A4
:1014300083128A012F218A150A12412A64006E083C
:10144000063C8A150A12031D312A8A012F214030D9
:10145000EA0683166A1383128A012F218A150A125B
:10146000412A64006E08073C8A150A12031D412AAE
:101470008A012F218030EA068316EA1383128A013B
:101480002F218A012F216A0887008A012F21FE302F
:101490008A01062084308A0106200030871B013033
:1014A0008A0106200030071B01308A010620003027
:1014B000871A01308A0106200030071A01308A019C
:1014C00006200030871901308A01062000300719F4
:1014D00001308A0106200030871801308A01062079
:1014E0000030071801308A0106208A012F2164008C
:1014F0007008003C8A150A12031D802A8601061610
:101500008A012F2164007008013C8A150A12031D0C
:101510008B2A860186168A012F2164007008023CFE
:101520008A150A12031D962A860106178A012F21A1
:1015300064007008033C8A150A12031DA12A860163
:1015400086178A012F218A012F218A01892D8A017C
:101550002F218A012F218A150A1226298A012F217B
:101560008A012F218A01892D8A012F2108008B10E1
:0E15700009008A012F2163008A150A12BB2A86
:02400E00C423C9
:1042000000000000000000000000000000000000AE
:10421000000000000000000000000000000000009E
:10422000000000000000000000000000000000008E
:10423000000000000000000000000000000000007E
:10424000000000000000000000000000000000006E
:10425000000000000000000000000000000000005E
:10426000000000000000000000000000000000004E
:10427000000000000000000000000000000000003E
:10428000000000000000000000000000000000002E
:10429000000000000000000000000000000000001E
:1042A000000000000000000000000000000000000E
:1042B00000000000000000000000000000000000FE
:1042C00000000000000000000000000000000000EE
:1042D00000000000000000000000000000000000DE
:1042E00000000000000000000000000000000000CE
:1042F00000000000000000000000000000000000BE
:1043000000000000000000000000000000000000AD
:10431000000000000000000000000000000000009D
:10432000000000000000000000000000000000008D
:10433000000000000000000000000000000000007D
:10434000000000000000000000000000000000006D
:10435000000000000000000000000000000000005D
:10436000000000000000000000000000000000004D
:10437000000000000000000000000000000000003D
:10438000000000000000000000000000000000002D
:10439000000000000000000000000000000000001D
:1043A000000000000000000000000000000000000D
:1043B00000000000000000000000000000000000FD
:1043C00000000000000000000000000000000000ED
:1043D00000000000000000000000000000000000DD
:1043E00000000000000000000000000000000000CD
:0E43F0000000000000000000000000000000BF
:00000001FF
